{
  "contractName": "TictacToe",
  "abi": [
    {
      "constant": true,
      "inputs": [],
      "name": "player2",
      "outputs": [
        {
          "name": "",
          "type": "address"
        }
      ],
      "payable": false,
      "stateMutability": "view",
      "type": "function"
    },
    {
      "constant": true,
      "inputs": [],
      "name": "boardSize",
      "outputs": [
        {
          "name": "",
          "type": "uint8"
        }
      ],
      "payable": false,
      "stateMutability": "view",
      "type": "function"
    },
    {
      "constant": true,
      "inputs": [],
      "name": "gameCost",
      "outputs": [
        {
          "name": "",
          "type": "uint256"
        }
      ],
      "payable": false,
      "stateMutability": "view",
      "type": "function"
    },
    {
      "constant": true,
      "inputs": [],
      "name": "player1",
      "outputs": [
        {
          "name": "",
          "type": "address"
        }
      ],
      "payable": false,
      "stateMutability": "view",
      "type": "function"
    },
    {
      "inputs": [],
      "payable": true,
      "stateMutability": "payable",
      "type": "constructor"
    },
    {
      "anonymous": false,
      "inputs": [
        {
          "indexed": false,
          "name": "player",
          "type": "address"
        }
      ],
      "name": "PlayerJoined",
      "type": "event"
    },
    {
      "anonymous": false,
      "inputs": [
        {
          "indexed": false,
          "name": "player",
          "type": "address"
        }
      ],
      "name": "NextPlayer",
      "type": "event"
    },
    {
      "anonymous": false,
      "inputs": [
        {
          "indexed": false,
          "name": "winner",
          "type": "address"
        }
      ],
      "name": "GameOverWithWin",
      "type": "event"
    },
    {
      "anonymous": false,
      "inputs": [],
      "name": "GameOverWithDraw",
      "type": "event"
    },
    {
      "anonymous": false,
      "inputs": [
        {
          "indexed": false,
          "name": "receiver",
          "type": "address"
        },
        {
          "indexed": false,
          "name": "amountInWei",
          "type": "uint256"
        }
      ],
      "name": "PayOutSuccess",
      "type": "event"
    },
    {
      "constant": false,
      "inputs": [],
      "name": "joinGame",
      "outputs": [],
      "payable": true,
      "stateMutability": "payable",
      "type": "function"
    },
    {
      "constant": true,
      "inputs": [],
      "name": "returnBoard",
      "outputs": [
        {
          "name": "",
          "type": "address[3][3]"
        }
      ],
      "payable": false,
      "stateMutability": "view",
      "type": "function"
    },
    {
      "constant": false,
      "inputs": [],
      "name": "emergencyCashOut",
      "outputs": [],
      "payable": false,
      "stateMutability": "nonpayable",
      "type": "function"
    },
    {
      "constant": false,
      "inputs": [
        {
          "name": "x",
          "type": "uint8"
        },
        {
          "name": "y",
          "type": "uint8"
        }
      ],
      "name": "setStone",
      "outputs": [],
      "payable": false,
      "stateMutability": "nonpayable",
      "type": "function"
    }
  ],
  "bytecode": "0x608060405260036000806101000a81548160ff021916908360ff16021790555060b4600060036101000a81548160ff021916908360ff16021790555033600b60006101000a81548173ffffffffffffffffffffffffffffffffffffffff021916908373ffffffffffffffffffffffffffffffffffffffff16021790555067016345785d8a00003414151561009257600080fd5b600060039054906101000a900460ff1660ff16600181905550611472806100ba6000396000f3fe60806040526004361061008e576000357c0100000000000000000000000000000000000000000000000000000000900463ffffffff1680633fde48ca1461009357806359a5f12d146100aa5780637d3f907414610101578063c30ed2401461014c578063c51d69f4146101c2578063cab896dc146101f3578063d30895e41461021e578063d4f77b1c14610275575b600080fd5b34801561009f57600080fd5b506100a861027f565b005b3480156100b657600080fd5b506100bf6102b4565b604051808273ffffffffffffffffffffffffffffffffffffffff1673ffffffffffffffffffffffffffffffffffffffff16815260200191505060405180910390f35b34801561010d57600080fd5b5061014a6004803603604081101561012457600080fd5b81019080803560ff169060200190929190803560ff1690602001909291905050506102da565b005b34801561015857600080fd5b50610161610bad565b604051808260036000925b818410156101b25782846020020151600360200280838360005b838110156101a1578082015181840152602081019050610186565b50505050905001926001019261016c565b9250505091505060405180910390f35b3480156101ce57600080fd5b506101d7610c66565b604051808260ff1660ff16815260200191505060405180910390f35b3480156101ff57600080fd5b50610208610c78565b6040518082815260200191505060405180910390f35b34801561022a57600080fd5b50610233610c84565b604051808273ffffffffffffffffffffffffffffffffffffffff1673ffffffffffffffffffffffffffffffffffffffff16815260200191505060405180910390f35b61027d610caa565b005b4260015410151561028f57600080fd5b600060029054906101000a900460ff1615156102aa57600080fd5b6102b2610f7e565b565b600c60009054906101000a900473ffffffffffffffffffffffffffffffffffffffff1681565b600073ffffffffffffffffffffffffffffffffffffffff1660028360ff1660038110151561030457fe5b600302018260ff1660038110151561031857fe5b0160009054906101000a900473ffffffffffffffffffffffffffffffffffffffff1673ffffffffffffffffffffffffffffffffffffffff1614151561035c57600080fd5b4260015411151561036c57600080fd5b600060029054906101000a900460ff16151561038457fe5b6000809054906101000a900460ff1660ff168260ff161015156103a357fe5b6000809054906101000a900460ff1660ff168160ff161015156103c257fe5b3373ffffffffffffffffffffffffffffffffffffffff16600f60009054906101000a900473ffffffffffffffffffffffffffffffffffffffff1673ffffffffffffffffffffffffffffffffffffffff1614151561041e57600080fd5b3360028360ff1660038110151561043157fe5b600302018260ff1660038110151561044557fe5b0160006101000a81548173ffffffffffffffffffffffffffffffffffffffff021916908373ffffffffffffffffffffffffffffffffffffffff1602179055506000600181819054906101000a900460ff168092919060010191906101000a81548160ff021916908360ff16021790555050600060039054906101000a900460ff1660ff16420160018190555060008090505b6000809054906101000a900460ff1660ff168160ff1610156105f357600f60009054906101000a900473ffffffffffffffffffffffffffffffffffffffff1673ffffffffffffffffffffffffffffffffffffffff1660028260ff1660038110151561053e57fe5b600302018360ff1660038110151561055257fe5b0160009054906101000a900473ffffffffffffffffffffffffffffffffffffffff1673ffffffffffffffffffffffffffffffffffffffff16141515610596576105f3565b60016000809054906101000a900460ff160360ff168160ff1614156105e6576105e0600f60009054906101000a900473ffffffffffffffffffffffffffffffffffffffff166111fb565b50610ba9565b80806001019150506104d7565b5060008090505b6000809054906101000a900460ff1660ff168160ff16101561071657600f60009054906101000a900473ffffffffffffffffffffffffffffffffffffffff1673ffffffffffffffffffffffffffffffffffffffff1660028260ff1660038110151561066157fe5b600302018460ff1660038110151561067557fe5b0160009054906101000a900473ffffffffffffffffffffffffffffffffffffffff1673ffffffffffffffffffffffffffffffffffffffff161415156106b957610716565b60016000809054906101000a900460ff160360ff168160ff16141561070957610703600f60009054906101000a900473ffffffffffffffffffffffffffffffffffffffff166111fb565b50610ba9565b80806001019150506105fa565b508060ff168260ff1614156108495760008090505b6000809054906101000a900460ff1660ff168160ff16101561084757600f60009054906101000a900473ffffffffffffffffffffffffffffffffffffffff1673ffffffffffffffffffffffffffffffffffffffff1660028260ff1660038110151561079257fe5b600302018260ff166003811015156107a657fe5b0160009054906101000a900473ffffffffffffffffffffffffffffffffffffffff1673ffffffffffffffffffffffffffffffffffffffff161415156107ea57610847565b60016000809054906101000a900460ff160360ff168160ff16141561083a57610834600f60009054906101000a900473ffffffffffffffffffffffffffffffffffffffff166111fb565b50610ba9565b808060010191505061072b565b505b60016000809054906101000a900460ff160360ff1681830160ff1614156109a15760008090505b6000809054906101000a900460ff1660ff168160ff16101561099f57600f60009054906101000a900473ffffffffffffffffffffffffffffffffffffffff1673ffffffffffffffffffffffffffffffffffffffff1660028260ff166003811015156108d757fe5b600302018260016000809054906101000a900460ff16030360ff166003811015156108fe57fe5b0160009054906101000a900473ffffffffffffffffffffffffffffffffffffffff1673ffffffffffffffffffffffffffffffffffffffff161415156109425761099f565b60016000809054906101000a900460ff160360ff168160ff1614156109925761098c600f60009054906101000a900473ffffffffffffffffffffffffffffffffffffffff166111fb565b50610ba9565b8080600101915050610870565b505b60026000809054906101000a900460ff1660ff160a60ff16600060019054906101000a900460ff1660ff1614156109df576109da610f7e565b610ba9565b600c60009054906101000a900473ffffffffffffffffffffffffffffffffffffffff1673ffffffffffffffffffffffffffffffffffffffff16600f60009054906101000a900473ffffffffffffffffffffffffffffffffffffffff1673ffffffffffffffffffffffffffffffffffffffff161415610abf57600b60009054906101000a900473ffffffffffffffffffffffffffffffffffffffff16600f60006101000a81548173ffffffffffffffffffffffffffffffffffffffff021916908373ffffffffffffffffffffffffffffffffffffffff160217905550610b23565b600c60009054906101000a900473ffffffffffffffffffffffffffffffffffffffff16600f60006101000a81548173ffffffffffffffffffffffffffffffffffffffff021916908373ffffffffffffffffffffffffffffffffffffffff1602179055505b7f637351f91da430278368fb3e486c8c3da47b2e6ce4d28b2c404cb044702ca7e1600f60009054906101000a900473ffffffffffffffffffffffffffffffffffffffff16604051808273ffffffffffffffffffffffffffffffffffffffff1673ffffffffffffffffffffffffffffffffffffffff16815260200191505060405180910390a15b5050565b610bb56113f4565b6002600380602002604051908101604052809291906000905b82821015610c5d57838260030201600380602002604051908101604052809291908260038015610c49576020028201915b8160009054906101000a900473ffffffffffffffffffffffffffffffffffffffff1673ffffffffffffffffffffffffffffffffffffffff1681526020019060010190808311610bff575b505050505081526020019060010190610bce565b50505050905090565b6000809054906101000a900460ff1681565b67016345785d8a000081565b600b60009054906101000a900473ffffffffffffffffffffffffffffffffffffffff1681565b600073ffffffffffffffffffffffffffffffffffffffff16600c60009054906101000a900473ffffffffffffffffffffffffffffffffffffffff1673ffffffffffffffffffffffffffffffffffffffff16141515610d0457fe5b6001600060026101000a81548160ff02191690831515021790555067016345785d8a000034141515610d3557600080fd5b33600c60006101000a81548173ffffffffffffffffffffffffffffffffffffffff021916908373ffffffffffffffffffffffffffffffffffffffff1602179055507f31e760aa525306aba638a784082a013b6a1cc0a9a1789f3f22281c0453b10b1f600c60009054906101000a900473ffffffffffffffffffffffffffffffffffffffff16604051808273ffffffffffffffffffffffffffffffffffffffff1673ffffffffffffffffffffffffffffffffffffffff16815260200191505060405180910390a16000600243811515610e0957fe5b061415610e7857600c60009054906101000a900473ffffffffffffffffffffffffffffffffffffffff16600f60006101000a81548173ffffffffffffffffffffffffffffffffffffffff021916908373ffffffffffffffffffffffffffffffffffffffff160217905550610edc565b600b60009054906101000a900473ffffffffffffffffffffffffffffffffffffffff16600f60006101000a81548173ffffffffffffffffffffffffffffffffffffffff021916908373ffffffffffffffffffffffffffffffffffffffff1602179055505b600060039054906101000a900460ff1660ff1642016001819055507f637351f91da430278368fb3e486c8c3da47b2e6ce4d28b2c404cb044702ca7e1600f60009054906101000a900473ffffffffffffffffffffffffffffffffffffffff16604051808273ffffffffffffffffffffffffffffffffffffffff1673ffffffffffffffffffffffffffffffffffffffff16815260200191505060405180910390a1565b60008060026101000a81548160ff0219169083151502179055507f2207d46a2ba0f2acda06e9a222b40fd004e385738b3f868e63b2c0bfe4bc094c60405160405180910390a1600060023073ffffffffffffffffffffffffffffffffffffffff1631811515610fe957fe5b04905060001515600b60009054906101000a900473ffffffffffffffffffffffffffffffffffffffff1673ffffffffffffffffffffffffffffffffffffffff166108fc839081150290604051600060405180830381858888f19350505050151514156110645780600d600082825401925050819055506110f2565b7f90bf37582a972f42d976d59d0975eb37c8195d070c9229378de14a6da715d023600b60009054906101000a900473ffffffffffffffffffffffffffffffffffffffff1682604051808373ffffffffffffffffffffffffffffffffffffffff1673ffffffffffffffffffffffffffffffffffffffff1681526020018281526020019250505060405180910390a15b60001515600c60009054906101000a900473ffffffffffffffffffffffffffffffffffffffff1673ffffffffffffffffffffffffffffffffffffffff166108fc839081150290604051600060405180830381858888f193505050501515141561116a5780600e600082825401925050819055506111f8565b7f90bf37582a972f42d976d59d0975eb37c8195d070c9229378de14a6da715d023600c60009054906101000a900473ffffffffffffffffffffffffffffffffffffffff1682604051808373ffffffffffffffffffffffffffffffffffffffff1673ffffffffffffffffffffffffffffffffffffffff1681526020018281526020019250505060405180910390a15b50565b60008060026101000a81548160ff0219169083151502179055507f8245a3876d42d9b0bdb7f24184c03fc24e3d8a079f492b1ec9ceae70b366edf981604051808273ffffffffffffffffffffffffffffffffffffffff1673ffffffffffffffffffffffffffffffffffffffff16815260200191505060405180910390a1600115158173ffffffffffffffffffffffffffffffffffffffff166108fc3073ffffffffffffffffffffffffffffffffffffffff16319081150290604051600060405180830381858888f19350505050151514151561136e57600b60009054906101000a900473ffffffffffffffffffffffffffffffffffffffff1673ffffffffffffffffffffffffffffffffffffffff168173ffffffffffffffffffffffffffffffffffffffff16141561134a573073ffffffffffffffffffffffffffffffffffffffff1631600d81905550611369565b3073ffffffffffffffffffffffffffffffffffffffff1631600e819055505b6113f1565b7f90bf37582a972f42d976d59d0975eb37c8195d070c9229378de14a6da715d023813073ffffffffffffffffffffffffffffffffffffffff1631604051808373ffffffffffffffffffffffffffffffffffffffff1673ffffffffffffffffffffffffffffffffffffffff1681526020018281526020019250505060405180910390a15b50565b610120604051908101604052806003905b61140d611423565b8152602001906001900390816114055790505090565b60606040519081016040528060039060208202803883398082019150509050509056fea165627a7a723058208a0b7111d85e55ce2bf500f6c2af0adb09d96678b1937cdd81245e17fc76ad580029",
  "source": "pragma solidity ^0.5.0;\n\ncontract TictacToe {\n    uint constant public gameCost = 0.1 ether;\n    \n    uint8 public boardSize = 3;\n    uint8 movesCounter;\n\n    \n    bool gameActive;\n    \n    \n    uint8 timeToReact = 3 minutes;\n    uint gameValidUtil;\n    \n    address[3][3] board;\n    \n    address payable public player1;\n    address payable public player2;\n    \n    uint balanceToWithdrawPlayer1;\n    uint balanceToWithdrawPlayer2;\n    \n    address payable activePlayer;\n    // the name for event should be capitalized\n    event PlayerJoined(address player);\n    event NextPlayer(address player);\n    event GameOverWithWin(address winner);\n    event GameOverWithDraw();\n    event PayOutSuccess(address receiver, uint amountInWei);\n    \n    constructor() public payable{\n        player1 = msg.sender;\n        require(msg.value == gameCost);\n        gameValidUtil = timeToReact;\n    }\n    \n    function joinGame() public payable{\n        assert(player2 == address(0));\n        gameActive = true;\n        \n        require(msg.value == gameCost);\n        \n        player2 = msg.sender;\n        emit PlayerJoined(player2);\n        // 轮流加入轮流加入轮流you xi\n        if(block.number % 2 ==0){\n            activePlayer = player2;\n        }else{\n            activePlayer = player1;\n        }\n        \n        gameValidUtil = now + timeToReact;\n        emit NextPlayer(activePlayer);\n    }\n    \n    // returns now must follow a memory\n    function returnBoard() public view returns(address[3][3] memory) {\n        return board;\n    }\n    \n    // using payable to decorate address before send\n    function setWinner(address payable player) private{\n        gameActive = false;\n        // emit an event\n        emit GameOverWithWin(player);\n        // this represent the contract to send balance\n        // transfer will roll back all the transaction\n        // now need address(this) to get the contract address\n        if(player.send(address(this).balance) != true){\n            if(player == player1){\n                balanceToWithdrawPlayer1 = address(this).balance;\n            }else{\n                balanceToWithdrawPlayer2 = address(this).balance;\n            }\n        }\n        // transfer money to winner\n        else{\n            emit PayOutSuccess(player, address(this).balance);\n        }\n    }\n    \n    function withDrawWin() private{\n        if(msg.sender == player1){\n            require(balanceToWithdrawPlayer1 >0);\n            balanceToWithdrawPlayer1 = 0;\n            \n            player1.transfer(balanceToWithdrawPlayer1);\n            \n            emit PayOutSuccess(player1, balanceToWithdrawPlayer1);\n        }\n        else{\n            require(balanceToWithdrawPlayer2 >0);\n            balanceToWithdrawPlayer2 = 0;\n            player2.transfer(balanceToWithdrawPlayer2);\n            \n            emit PayOutSuccess(player2, balanceToWithdrawPlayer2);\n        }\n    }\n    \n    function setDraw() private{\n        gameActive = false;\n        emit GameOverWithDraw();\n        \n        // send balance back to player\n        uint balanceToPayOut = address(this).balance / 2;\n        if(player1.send(balanceToPayOut) == false){\n            balanceToWithdrawPlayer1 += balanceToPayOut;\n        }else{\n            emit PayOutSuccess(player1, balanceToPayOut);\n        }\n        if(player2.send(balanceToPayOut) == false){\n            balanceToWithdrawPlayer2 += balanceToPayOut;\n        }\n        else{\n            emit PayOutSuccess(player2, balanceToPayOut);\n        }\n    }\n    \n    function emergencyCashOut() public{\n        require(gameValidUtil < now);\n        require(gameActive);\n        setDraw();\n    }\n    \n    function setStone(uint8 x, uint8 y) public{\n        require(board[x][y] == address(0));\n        require(gameValidUtil > now);\n        assert(gameActive);\n        assert(x < boardSize);\n        assert(y < boardSize);\n        require(activePlayer == msg.sender);\n        \n        board[x][y] = msg.sender;\n        \n        movesCounter ++;\n        gameValidUtil = now + timeToReact;\n        \n        for(uint8 i =0; i< boardSize; i++){\n            if(board[i][y] != activePlayer){\n                break;\n            }\n            // win\n            if(i == boardSize -1){\n                setWinner(activePlayer);\n                return;\n            }\n        }\n        \n        for(uint8 i = 0; i < boardSize; i++){\n            if(board[i][x] != activePlayer){\n                break;\n            }\n            // win\n\n            if(i == boardSize -1){\n                setWinner(activePlayer);\n                return;\n            }\n        }\n        \n        // diagonale\n        if(x == y){\n            for(uint8 i = 0; i < boardSize; i++){\n                if(board[i][i] != activePlayer){\n                    break;\n                }\n                // win\n                if(i == boardSize -1){\n                    setWinner(activePlayer);\n                    return;\n                }\n            }\n        }\n        \n        \n        // anti-diagonale\n        if((x+y) == boardSize -1){\n            for(uint8 i = 0; i < boardSize; i++){\n                if(board[i][boardSize - 1 - i] != activePlayer){\n                    break;\n                }\n                // win\n                \n                if(i == boardSize -1){\n                    setWinner(activePlayer);\n                    return;\n                }\n            }\n        }\n        // draw\n        \n        if(movesCounter == boardSize **2){\n            setDraw();\n            return;\n        }\n        if(activePlayer == player2){\n            activePlayer = player1;\n            \n        }else{\n            activePlayer = player2;\n        }\n\n        emit NextPlayer(activePlayer);\n    }\n}",
  "sourcePath": "/Users/zhaojuntao/Desktop/blockchain-attachments/test2/contracts/TicTacToe.sol",
  "compiler": {
    "name": "solc",
    "version": "0.5.0+commit.1d4f565a.Emscripten.clang"
  },
  "schemaVersion": "3.0.0",
  "updatedAt": "2019-01-07T16:04:37.008Z",
  "devdoc": {
    "methods": {}
  },
  "userdoc": {
    "methods": {}
  }
}